{
  "contractName": "TweetStorage",
  "abi": [
    {
      "constant": true,
      "inputs": [],
      "name": "controllerAddress",
      "outputs": [
        {
          "name": "",
          "type": "address"
        }
      ],
      "payable": false,
      "stateMutability": "view",
      "type": "function"
    },
    {
      "constant": true,
      "inputs": [],
      "name": "ownerAddress",
      "outputs": [
        {
          "name": "",
          "type": "address"
        }
      ],
      "payable": false,
      "stateMutability": "view",
      "type": "function"
    },
    {
      "constant": true,
      "inputs": [
        {
          "name": "",
          "type": "uint256"
        }
      ],
      "name": "tweets",
      "outputs": [
        {
          "name": "id",
          "type": "uint256"
        },
        {
          "name": "text",
          "type": "string"
        },
        {
          "name": "userId",
          "type": "uint256"
        },
        {
          "name": "postedAt",
          "type": "uint256"
        }
      ],
      "payable": false,
      "stateMutability": "view",
      "type": "function"
    },
    {
      "constant": false,
      "inputs": [
        {
          "name": "_newOwner",
          "type": "address"
        }
      ],
      "name": "transferOwnership",
      "outputs": [],
      "payable": false,
      "stateMutability": "nonpayable",
      "type": "function"
    },
    {
      "constant": false,
      "inputs": [
        {
          "name": "_controllerAddress",
          "type": "address"
        }
      ],
      "name": "setControllerAddress",
      "outputs": [],
      "payable": false,
      "stateMutability": "nonpayable",
      "type": "function"
    },
    {
      "constant": false,
      "inputs": [
        {
          "name": "_userId",
          "type": "uint256"
        },
        {
          "name": "_text",
          "type": "string"
        }
      ],
      "name": "createTweet",
      "outputs": [
        {
          "name": "",
          "type": "uint256"
        }
      ],
      "payable": false,
      "stateMutability": "nonpayable",
      "type": "function"
    },
    {
      "constant": true,
      "inputs": [
        {
          "name": "_userId",
          "type": "uint256"
        }
      ],
      "name": "getTweetIdsFromUser",
      "outputs": [
        {
          "name": "",
          "type": "uint256[]"
        }
      ],
      "payable": false,
      "stateMutability": "view",
      "type": "function"
    }
  ],
  "bytecode": "0x60806040526000600455336000806101000a81548173ffffffffffffffffffffffffffffffffffffffff021916908373ffffffffffffffffffffffffffffffffffffffff1602179055506108af806100586000396000f3fe608060405234801561001057600080fd5b506004361061007d5760003560e01c80638f84aa091161005b5780638f84aa0914610228578063e8d857b014610272578063f2fde38b1461032e578063f3d3d448146103725761007d565b8063317aae1b146100825780634b24ea47146101055780637cc82f201461014f575b600080fd5b6100ae6004803603602081101561009857600080fd5b81019080803590602001909291905050506103b6565b6040518080602001828103825283818151815260200191508051906020019060200280838360005b838110156100f15780820151818401526020810190506100d6565b505050509050019250505060405180910390f35b61010d610421565b604051808273ffffffffffffffffffffffffffffffffffffffff1673ffffffffffffffffffffffffffffffffffffffff16815260200191505060405180910390f35b6102126004803603604081101561016557600080fd5b81019080803590602001909291908035906020019064010000000081111561018c57600080fd5b82018360208201111561019e57600080fd5b803590602001918460018302840111640100000000831117156101c057600080fd5b91908080601f016020809104026020016040519081016040528093929190818152602001838380828437600081840152601f19601f820116905080830192505050505050509192919290505050610447565b6040518082815260200191505060405180910390f35b610230610575565b604051808273ffffffffffffffffffffffffffffffffffffffff1673ffffffffffffffffffffffffffffffffffffffff16815260200191505060405180910390f35b61029e6004803603602081101561028857600080fd5b810190808035906020019092919050505061059a565b6040518085815260200180602001848152602001838152602001828103825285818151815260200191508051906020019080838360005b838110156102f05780820151818401526020810190506102d5565b50505050905090810190601f16801561031d5780820380516001836020036101000a031916815260200191505b509550505050505060405180910390f35b6103706004803603602081101561034457600080fd5b81019080803573ffffffffffffffffffffffffffffffffffffffff169060200190929190505050610662565b005b6103b46004803603602081101561038857600080fd5b81019080803573ffffffffffffffffffffffffffffffffffffffff169060200190929190505050610738565b005b60606003600083815260200190815260200160002080548060200260200160405190810160405280929190818152602001828054801561041557602002820191906000526020600020905b815481526020019060010190808311610401575b50505050509050919050565b600160009054906101000a900473ffffffffffffffffffffffffffffffffffffffff1681565b6000600160009054906101000a900473ffffffffffffffffffffffffffffffffffffffff1673ffffffffffffffffffffffffffffffffffffffff163373ffffffffffffffffffffffffffffffffffffffff16146104a357600080fd5b60046000815480929190600101919050555060405180608001604052806004548152602001838152602001848152602001428152506002600060045481526020019081526020016000206000820151816000015560208201518160010190805190602001906105139291906107d5565b506040820151816002015560608201518160030155905050600360008481526020019081526020016000206004549080600181540180825580915050906001820390600052602060002001600090919290919091505550600454905092915050565b6000809054906101000a900473ffffffffffffffffffffffffffffffffffffffff1681565b6002602052806000526040600020600091509050806000015490806001018054600181600116156101000203166002900480601f01602080910402602001604051908101604052809291908181526020018280546001816001161561010002031660029004801561064c5780601f106106215761010080835404028352916020019161064c565b820191906000526020600020905b81548152906001019060200180831161062f57829003601f168201915b5050505050908060020154908060030154905084565b6000809054906101000a900473ffffffffffffffffffffffffffffffffffffffff1673ffffffffffffffffffffffffffffffffffffffff163373ffffffffffffffffffffffffffffffffffffffff16146106bb57600080fd5b600073ffffffffffffffffffffffffffffffffffffffff168173ffffffffffffffffffffffffffffffffffffffff1614156106f557600080fd5b806000806101000a81548173ffffffffffffffffffffffffffffffffffffffff021916908373ffffffffffffffffffffffffffffffffffffffff16021790555050565b6000809054906101000a900473ffffffffffffffffffffffffffffffffffffffff1673ffffffffffffffffffffffffffffffffffffffff163373ffffffffffffffffffffffffffffffffffffffff161461079157600080fd5b80600160006101000a81548173ffffffffffffffffffffffffffffffffffffffff021916908373ffffffffffffffffffffffffffffffffffffffff16021790555050565b828054600181600116156101000203166002900490600052602060002090601f016020900481019282601f1061081657805160ff1916838001178555610844565b82800160010185558215610844579182015b82811115610843578251825591602001919060010190610828565b5b5090506108519190610855565b5090565b61087791905b8082111561087357600081600090555060010161085b565b5090565b9056fea265627a7a72305820558295b691a44deabc2cedd6582e51b01eabeaae002d4dc860483bb7867e34d064736f6c634300050a0032",
  "source": "pragma solidity ^0.5.10;\n\nimport '../helpers/BaseStorage.sol';\n\ncontract TweetStorage is BaseStorage {\n\n    mapping(uint => Tweet) public tweets;\n    mapping(uint => uint[]) userTweetIds;\n\n    struct Tweet {\n        uint id;\n        string text;\n        uint userId;\n        uint postedAt;\n    }\n\n    uint latestTweetId = 0;\n\n    function createTweet(uint _userId, string memory _text) public onlyController returns(uint) {\n        latestTweetId++;\n\n        tweets[latestTweetId] = Tweet(latestTweetId, _text, _userId, now);\n        userTweetIds[_userId].push(latestTweetId);\n\n        return latestTweetId;\n    }\n\n    function getTweetIdsFromUser(uint _userId) view public returns(uint[] memory) {\n        return userTweetIds[_userId];\n    }\n\n}\n",
  "sourcePath": "/Users/phaedrus/Development/tweether/contracts/tweets/TweetStorage.sol",
  "compiler": {
    "name": "solc",
    "version": "0.5.10+commit.5a6ea5b1.Emscripten.clang"
  },
  "schemaVersion": "3.3.3",
  "updatedAt": "2021-03-11T17:40:29.739Z",
  "networkType": "ethereum",
  "devdoc": {
    "methods": {}
  },
  "userdoc": {
    "methods": {}
  }
}